{
  "_format": "hh-sol-artifact-1",
  "contractName": "Pyth",
  "sourceName": "contracts/Pyth.sol",
  "abi": [
    {
      "inputs": [],
      "stateMutability": "nonpayable",
      "type": "constructor"
    },
    {
      "inputs": [],
      "name": "getEthUsdPrice",
      "outputs": [
        {
          "internalType": "int64",
          "name": "price",
          "type": "int64"
        },
        {
          "internalType": "int32",
          "name": "expo",
          "type": "int32"
        },
        {
          "internalType": "uint256",
          "name": "publishTime",
          "type": "uint256"
        }
      ],
      "stateMutability": "view",
      "type": "function"
    },
    {
      "inputs": [],
      "name": "oneDollarInWei",
      "outputs": [
        {
          "internalType": "uint256",
          "name": "res",
          "type": "uint256"
        }
      ],
      "stateMutability": "view",
      "type": "function"
    }
  ],
  "bytecode": "0x608060405234801561001057600080fd5b50735744cbf430d99456a0a8771208b674f27f8ef0fb6000806101000a81548173ffffffffffffffffffffffffffffffffffffffff021916908373ffffffffffffffffffffffffffffffffffffffff1602179055507fff61491a931112ddf1bd8147cd1b641375f79f5825126d665480874634fd0ace60001b6001819055506108168061009e6000396000f3fe608060405234801561001057600080fd5b50600436106100365760003560e01c8063a0a8045e1461003b578063a7b9a4101461005b575b600080fd5b610043610079565b604051610052939291906102b8565b60405180910390f35b610063610138565b60405161007091906102ef565b60405180910390f35b60008060008060008054906101000a900473ffffffffffffffffffffffffffffffffffffffff1673ffffffffffffffffffffffffffffffffffffffff166331d98b3f6001546040518263ffffffff1660e01b81526004016100da9190610323565b608060405180830381865afa1580156100f7573d6000803e3d6000fd5b505050506040513d601f19601f8201168201806040525081019061011b919061051a565b905080600001518160400151826060015193509350935050909192565b60008060008054906101000a900473ffffffffffffffffffffffffffffffffffffffff1673ffffffffffffffffffffffffffffffffffffffff166331d98b3f6001546040518263ffffffff1660e01b81526004016101969190610323565b608060405180830381865afa1580156101b3573d6000803e3d6000fd5b505050506040513d601f19601f820116820180604052508101906101d7919061051a565b9050600081604001517fffffffffffffffffffffffffffffffffffffffffffffffffffffffffffffffff61020b9190610576565b600a61021791906106f3565b670de0b6b3a7640000836000015167ffffffffffffffff16610239919061073e565b61024391906107af565b9050806ec097ce7bc90715b34b9f100000000061026091906107af565b9250505090565b60008160070b9050919050565b61027d81610267565b82525050565b60008160030b9050919050565b61029981610283565b82525050565b6000819050919050565b6102b28161029f565b82525050565b60006060820190506102cd6000830186610274565b6102da6020830185610290565b6102e760408301846102a9565b949350505050565b600060208201905061030460008301846102a9565b92915050565b6000819050919050565b61031d8161030a565b82525050565b60006020820190506103386000830184610314565b92915050565b6000604051905090565b600080fd5b600080fd5b6000601f19601f8301169050919050565b7f4e487b7100000000000000000000000000000000000000000000000000000000600052604160045260246000fd5b61039b82610352565b810181811067ffffffffffffffff821117156103ba576103b9610363565b5b80604052505050565b60006103cd61033e565b90506103d98282610392565b919050565b6103e781610267565b81146103f257600080fd5b50565b600081519050610404816103de565b92915050565b600067ffffffffffffffff82169050919050565b6104278161040a565b811461043257600080fd5b50565b6000815190506104448161041e565b92915050565b61045381610283565b811461045e57600080fd5b50565b6000815190506104708161044a565b92915050565b61047f8161029f565b811461048a57600080fd5b50565b60008151905061049c81610476565b92915050565b6000608082840312156104b8576104b761034d565b5b6104c260806103c3565b905060006104d2848285016103f5565b60008301525060206104e684828501610435565b60208301525060406104fa84828501610461565b604083015250606061050e8482850161048d565b60608301525092915050565b6000608082840312156105305761052f610348565b5b600061053e848285016104a2565b91505092915050565b7f4e487b7100000000000000000000000000000000000000000000000000000000600052601160045260246000fd5b600061058182610283565b915061058c83610283565b925082820261059a81610283565b91508082146105ac576105ab610547565b5b5092915050565b60008160011c9050919050565b6000808291508390505b600185111561060a578086048111156105e6576105e5610547565b5b60018516156105f55780820291505b8081029050610603856105b3565b94506105ca565b94509492505050565b60008261062357600190506106df565b8161063157600090506106df565b8160018114610647576002811461065157610680565b60019150506106df565b60ff84111561066357610662610547565b5b8360020a91508482111561067a57610679610547565b5b506106df565b5060208310610133831016604e8410600b84101617156106b55782820a9050838111156106b0576106af610547565b5b6106df565b6106c284848460016105c0565b925090508184048111156106d9576106d8610547565b5b81810290505b9392505050565b600060ff82169050919050565b60006106fe8261029f565b9150610709836106e6565b92506107367fffffffffffffffffffffffffffffffffffffffffffffffffffffffffffffffff8484610613565b905092915050565b60006107498261029f565b91506107548361029f565b92508282026107628161029f565b9150828204841483151761077957610778610547565b5b5092915050565b7f4e487b7100000000000000000000000000000000000000000000000000000000600052601260045260246000fd5b60006107ba8261029f565b91506107c58361029f565b9250826107d5576107d4610780565b5b82820490509291505056fea2646970667358221220026f5f66b9b20fc29f8d3b7bfd2edaffb0d7bd8506c2f67024b5b111990ab73f64736f6c63430008180033",
  "linkReferences": {},
  "deployedLinkReferences": {}
}